:100000000C947C000C94A4000C94A4000C94A40008
:100010000C94A4000C94A4000C94A4000C94A400D0
:100020000C94A4000C94A4000C94A4000C94A400C0
:100030000C94A4000C94A4000C94A4000C94A400B0
:100040000C94B6040C94A4000C9484040C945E04E8
:100050000C94A4000C94A4000C94A4000C94A40090
:100060000C94A4000C94A4000000000800020100FD
:100070000003040700000000000000000000000072
:10008000250028002B0000000000240027002A0083
:10009000040404040404040402020202020203032E
:1000A0000303030301020408102040800102040836
:1000B00010200102040810204E414E494E49545967
:1000C000494E46CDCCCC3D0AD7233C17B7D1387723
:1000D000CC2B329595E6241FB14F0A000020410039
:1000E00000C84200401C4620BCBE4CCA1B0E5AAE83
:1000F000C59D740000051D0811241FBECFEFD8E078
:10010000DEBFCDBF11E0A0E0B1E0E2E8FDE102C05A
:1001100005900D92AC36B107D9F722E0ACE6B1E01C
:1001200001C01D92A133B207E1F710E0CBE7D0E0A8
:1001300004C02197FE010E943708CA37D107C9F7CA
:100140000E943B050C94B40E0C94000090E0FC015E
:10015000EC55FF4F2491FC01E057FF4F8491882319
:1001600099F090E0880F991FFC01EA57FF4FA59185
:10017000B491FC01E458FF4F859194918FB7F894A6
:10018000EC91E22BEC938FBF0895CF92DF92EF9228
:10019000FF920F931F93CF93DF936C017A018B0132
:1001A000C0E0D0E0CE15DF0589F0D8016D918D015A
:1001B000D601ED91FC910190F081E02DC6010995E9
:1001C000892B11F47E0102C02196ECCFC701DF918B
:1001D000CF911F910F91FF90EF90DF90CF900895F6
:1001E000FC01918D828D981761F0828DDF01A80F3F
:1001F000B11D5D968C91928D9F5F9F73928F90E061
:1002000008958FEF9FEF0895FC01918D828D9817CF
:1002100031F0828DE80FF11D858D90E008958FEF0C
:100220009FEF0895FC01918D228D892F90E0805CD5
:100230009F4F821B91098F739927089586E891E05B
:100240000E94120121E0892B09F420E0822F0895F9
:10025000FC01848DDF01A80FB11DA35ABF4F2C9163
:10026000848D90E001968F739927848FA689B78932
:100270002C93A089B1898C9180648C93938D848D0B
:10028000981306C00288F389E02D80818F7D8083DA
:100290000895EF92FF920F931F93CF93DF93EC019A
:1002A00081E0888F9B8D8C8D981305C0E889F98932
:1002B000808185FD24C0F62E0B8D10E00F5F1F4F4F
:1002C0000F731127E02E8C8DE8120CC00FB607FCBF
:1002D000FACFE889F989808185FFF5CFCE010E94A8
:1002E0002801F1CF8B8DFE01E80FF11DE35AFF4F7E
:1002F000F0820B8FEA89FB898081806207C0EE89DA
:10030000FF896083E889F98980818064808381E046
:1003100090E0DF91CF911F910F91FF90EF900895A2
:10032000CF93DF93EC01888D8823C9F0EA89FB899C
:10033000808185FD05C0A889B9898C9186FD0FC093
:100340000FB607FCF5CF808185FFF2CFA889B98968
:100350008C9185FFEDCFCE010E942801E7CFDF9180
:10036000CF91089590E0FC01E859FF4F3491FC01D2
:10037000EC55FF4F2491FC01E057FF4FE491EE2331
:1003800009F43BC0332339F1333091F038F4313084
:10039000A9F0323001F584B58F7D12C0373091F06D
:1003A0003830A1F03430B9F4809180008F7D03C0E3
:1003B000809180008F77809380000DC084B58F7707
:1003C00084BD09C08091B0008F7703C08091B000D8
:1003D0008F7D8093B000F0E0EE0FFF1FE458FF4FD9
:1003E000A591B4918FB7F894EC91611103C0209559
:1003F0002E2301C02E2B2C938FBF08951F93CF93D4
:10040000DF93182FEB010E94A600209711F460E003
:1004100004C0CF3FD10539F461E0812FDF91CF9146
:100420001F910C94B201E12FF0E0E859FF4FE491E5
:10043000E330F9F048F4E130B9F0E230A1F584B5E9
:10044000806284BDC8BD34C0E730E9F0E83019F1FE
:10045000E43049F580918000806280938000D093E1
:100460008B00C0938A0024C084B5806884BDC7BD5A
:100470001FC080918000806880938000D0938900A5
:10048000C093880015C08091B00080688093B00050
:10049000C093B3000DC08091B00080628093B00023
:1004A000C093B40005C0C038D1050CF0B5CFAFCFB4
:1004B000DF91CF911F910895AF92BF92CF92DF92BB
:1004C000EF92FF920F931F93CF93DF939C012836F7
:1004D00081E0380710F027E631E0FB016536710551
:1004E00010F0E4E6F0E07A014536510518F084E6B4
:1004F000E82EF12C49EA51E02D33310570F4249FA8
:10050000C001259F900D349F900D112464E670E08A
:100510000E942308D62FC0E062C02937310590F42D
:10052000249FC001259F900D349F900D11248C595C
:10053000934664E670E00E942308262F2095C0E0D1
:10054000DFEF4EC0253B310580F4249FC001259F7D
:10055000900D349F900D11248853974C64E670E001
:100560000E942308C62FDFEF13C0213F310590F40E
:10057000249FC001259F900D349F900D1124845D10
:100580009A4264E670E00E942308D62FD095CFEF00
:1005900020E026C02D3281E0380788F4249FC00176
:1005A000259F900D349F900D112480579E4864E63E
:1005B00070E00E942308262FCFEFD0E011C0249FC7
:1005C000C001259F900D349F900D11248C50924FA7
:1005D00064E670E00E942308C62FC095D0E02FEF9C
:1005E00004E610E05801AE1ABF0AEFEFF0E0AF01E9
:1005F000421B51094A9DC0014B9D900D5A9D900D83
:100600001124B8010E942308362FAF014D1B510958
:100610004A9DC0014B9D900D5A9D900D1124B8012B
:100620000E942308C62EEC1BF109EA9DC001EB9D38
:10063000900DFA9D900D1124B8010E942308D62E2A
:10064000230F2E9DC0012F9D900D1124B8010E94F3
:10065000230885E00E94FE01DC0DDE9DC001DF9DC8
:10066000900D1124B8010E94230886E00E94FE012B
:10067000CD0DCE9DC001CF9D900D1124B8010E94DB
:10068000230883E0DF91CF911F910F91FF90EF90AE
:10069000DF90CF90BF90AF900C94FE011F93CF934B
:1006A000DF931F92CDB7DEB7162F682F70E085E07D
:1006B00049830E94FE01612F70E086E00E94FE01E6
:1006C0004981642F70E083E00F90DF91CF911F91FB
:1006D0000C94FE01009769F0FC0101900020E9F7FD
:1006E0003197AF01481B590BBC0186E891E00C948F
:1006F000C50080E090E008958F929F92AF92BF92E4
:100700000F931F93CF93DF93CDB7DEB7A1970FB6AB
:10071000F894DEBF0FBECDBF19A2423008F44AE004
:100720008E010F5D1F4F842E912CA12CB12CA501A1
:1007300094010E94830EE62FB901CA0101501109EC
:10074000EA3014F4E05D01C0E95CD801EC93232B9E
:10075000242B252B61F7C8010E946A03A1960FB6CE
:10076000F894DEBF0FBECDBFDF91CF911F910F91E7
:10077000BF90AF909F908F9008950E94630A0F934F
:100780001F93CF93DF93EC0188819981009729F023
:100790002A813B812617370788F48B016F5F7F4FD3
:1007A0000E949909009761F0998388831B830A83CB
:1007B0002C813D81232B11F4FC01108281E001C0CA
:1007C00080E0DF91CF911F910F910895EF92FF92FA
:1007D0000F931F93CF93DF93EC017B018A01BA0142
:1007E0000E94BF032881398181110DC02115310577
:1007F00019F0C9010E940109198218821D821C8208
:100800001B821A8206C01D830C83B701C9010E9496
:10081000710ACE01DF91CF911F910F91FF90EF9060
:100820000895EF92FF920F931F93CF93DF9300D021
:10083000CDB7DEB7EE24E39486E891E00E94120182
:10084000892B69F186E891E00E94F000F82E8983F7
:100850001A8200912702109128020F5F1F4FB801E2
:1008600083E292E00E94BF03882399F02091230243
:10087000309124028091270290912802BE016F5F7F
:100880007F4F820F931F0E94710A109328020093DA
:1008900027028AE0F812D0CFE0927C01CDCF0F90F2
:1008A0000F90DF91CF911F910F91FF90EF900895DE
:1008B0000E941E0181110C94110408951F920F9241
:1008C0000FB60F9211242F933F934F935F936F9323
:1008D0007F938F939F93AF93BF93EF93FF9386E89C
:1008E00091E00E942801FF91EF91BF91AF919F91FC
:1008F0008F917F916F915F914F913F912F910F90C9
:100900000FBE0F901F9018951F920F920FB60F9267
:1009100011242F938F939F93EF93FF93E091960170
:10092000F09197018081E0919C01F0919D0182FD01
:1009300012C0908180919F018F5F8F732091A001E1
:10094000821751F0E0919F01F0E0EA57FE4F958F3A
:1009500080939F0101C08081FF91EF919F918F91C2
:100960002F910F900FBE0F901F9018951F920F920E
:100970000FB60F9211242F933F938F939F93AF93B2
:10098000BF938091710190917201A0917301B09118
:1009900074013091700123E0230F2D3720F401966C
:1009A000A11DB11D05C026E8230F0296A11DB11D92
:1009B000209370018093710190937201A093730151
:1009C000B093740180916C0190916D01A0916E01C2
:1009D000B0916F010196A11DB11D80936C019093A0
:1009E0006D01A0936E01B0936F01BF91AF919F9184
:1009F0008F913F912F910F900FBE0F901F901895E0
:100A0000E6E8F1E01382128288EE93E0A0E0B0E025
:100A100084839583A683B78386E591E09183808361
:100A200085EC90E09587848784EC90E097878687B3
:100A300080EC90E0918B808B81EC90E0938B828BAB
:100A400082EC90E0958B848B86EC90E0978B868B84
:100A5000118E128E138E148EE3E2F2E01182108258
:100A6000138212821582148241E050E062E671E046
:100A7000CF010C94E603CF93DF93CDB7DEB7C35D10
:100A8000D1090FB6F894DEBF0FBECDBF789484B500
:100A9000826084BD84B5816084BD85B5826085BD7A
:100AA00085B5816085BD80916E00816080936E0008
:100AB00010928100809181008260809381008091FA
:100AC00081008160809381008091800081608093AB
:100AD00080008091B10084608093B1008091B0006B
:100AE00081608093B00080917A00846080937A0066
:100AF00080917A00826080937A0080917A00816090
:100B000080937A0080917A00806880937A001092B6
:100B1000C10085E00E94A60086E00E94A60083E056
:100B20000E94A600E0919601F091970182E08083F7
:100B3000E0919201F09193011082E0919401F09183
:100B400095018FEC808310929E01E0919A01F091C3
:100B50009B0186E08083E0919801F091990180816A
:100B600080618083E0919801F09199018081886093
:100B70008083E0919801F091990180818068808361
:100B8000E0919801F091990180818F7D808368ECDC
:100B900070E083E292E00E94BF03C12CD12C760169
:100BA000D39464E0262E73E0372E2FB7F89480910B
:100BB000710190917201A0917301B09174012FBFE6
:100BC0008093820190938301A0938401B093850167
:100BD00040917E0150917F0160918001709181016F
:100BE00020917D012330B9F50091750110917601B6
:100BF000083621E0120754F5809078019090790131
:100C0000A0907A01B0907B012C013D014818590851
:100C10006A087B08441655066606770608F4CCC0B9
:100C20008093780190937901A0937A01B0937B012E
:100C300044E650E064E670E0C8010E945C020F5F89
:100C40001F4F1093760100937501B6C01092760184
:100C500010927501B1C02430F1F500917801109126
:100C6000790120917A0130917B013C014D01601A9C
:100C7000710A820A930A641675068606970608F4B6
:100C80009BC08093780190937901A0937A01B093EF
:100C90007B010E94D50A4B015C010E94D50A2B0101
:100CA0003C010E94D50AA70196010E941A0E162F38
:100CB000C301B201A70196010E941A0E062FC501B9
:100CC000B401A70196010E941A0E862F412F602FB2
:100CD0000E944E0371C0253009F06EC0EAE0F1E0D9
:100CE000DE01119688E401900D928A95E1F78091DA
:100CF000820190918301A0918401B09185010091BE
:100D000078011091790120917A0130917B014C0199
:100D10005D01801A910AA20AB30A84169506A606F6
:100D2000B70608F449C08093780190937901A093A5
:100D30007A01B0937B01109177011831D8F5E12F3A
:100D4000F0E0CF01880F991FE80FF91FAA24A394A0
:100D5000B12CAC0EBD1EEA0DFB1DA080B18002813E
:100D6000402F6B2D8A2D0E944E031F5F1093770139
:100D70006A2D70E080E090E04AE00E947C0384E607
:100D800091E00E946A036B2D70E080E090E04AE001
:100D90000E947C0384E691E00E946A03602F70E069
:100DA00080E090E04AE00E947C0386E691E00E94A9
:100DB0006A0302C01092770180917C01882309F4B4
:100DC00039C1C753DF4F19821882C95CD040C5535F
:100DD000DF4F19821882CB5CD040C353DF4F19829A
:100DE0001882CD5CD040609123027091240261157D
:100DF000710549F04091270250912802CE01875396
:100E00009F4F0E94E603C353DF4F88819981CD5CD9
:100E1000D0400097C9F08C0101501109801791074B
:100E200008F48C01C753DF4F68817981C95CD040D9
:100E3000A801CE0101960E94780AE1E0F0E0EC0FF3
:100E4000FD1FE00FF11F108269E671E0CE010196EF
:100E50000E942C0B8C010E94E70A4C01990FAA08F2
:100E6000BB08B7FE14C0E0918601F09187010190A4
:100E7000F081E02D6DE286E891E0099566277727FD
:100E8000CB01681979098A099B094AE003C04AE045
:100E9000C501B4010E947C0386E691E00E946A03CA
:100EA000C8010E94E70A5C01019709F042C069E6A7
:100EB00071E080E090E00E942C0B4C0169E671E04B
:100EC00080E090E00E942C0B5C0169E671E080E01C
:100ED00090E00E942C0B8C01C4010E94E30A2B01BC
:100EE0003C01C5010E94E30A4B015C01C8010E945C
:100EF000E30A0E943D08C153DF4F688379838A83E8
:100F00009B83CF5CD040C501B4010E943D084B01DA
:100F10005C01C301B2010E943D08DC01CB01C15359
:100F2000DF4F48815981CF5CD040B4010E945C0200
:100F30006FC082E0A816B10489F569E671E080E02F
:100F400090E00E942C0B4C0169E671E080E090E09B
:100F50000E942C0B5C0169E671E080E090E00E9449
:100F60002C0B8C01C4010E94E70A982EC5010E9437
:100F7000E70A682FC801CD52DF4F6883C35DD040B8
:100F80000E94E70A482FCD52DF4F6881C35DD040F1
:100F9000892D0E944E0310927D013AC093E0A9165C
:100FA000B10459F469E671E080E090E00E942C0BF6
:100FB0000E94050B30927D0123C0C8010E94050BE1
:100FC000643071058105910559F469E671E080E0AE
:100FD00090E00E942C0B0E94050B20927D0110C016
:100FE00025E0A216B104A1F469E671E080E090E08A
:100FF0000E942C0B0E94050B25E0422E40927D01A1
:1010000060937E0170937F018093800190938101B2
:10101000C753DF4F88819981C95CD0400E94010984
:1010200040E050E068E671E083E292E00E94E6036F
:1010300010927C010E945804B8CD809123029091B7
:1010400024020C940109AA1BBB1B51E107C0AA1F73
:10105000BB1FA617B70710F0A61BB70B881F991F59
:101060005A95A9F780959095BC01CD010895EE0F92
:10107000FF1F0590F491E02D09940E94F90D88F06E
:101080009F5798F0B92F9927B751B0F0E1F0660F4C
:10109000771F881F991F1AF0BA95C9F714C0B1308D
:1010A00091F00E94130EB1E008950C94130E672F77
:1010B000782F8827B85F39F0B93FCCF386957795BC
:1010C0006795B395D9F73EF49095809570956195A5
:1010D0007F4F8F4F9F4F0895CF93DF9382309105BD
:1010E00010F482E090E0E0912D02F0912E0220E0D9
:1010F00030E0C0E0D0E0309711F1408151814817D5
:101100005907C0F04817590761F4828193812097ED
:1011100019F09B838A832BC090932E0280932D021B
:1011200026C02115310519F04217530718F49A010A
:10113000BE01DF01EF010280F381E02DDCCF21153C
:10114000310509F1281B390B2430310590F4129632
:101150008D919C9113976115710521F0FB0193838B
:10116000828304C090932E0280932D02FD0132965B
:1011700044C0FD01E20FF31F819391932250310986
:101180002D933C933AC020912B0230912C02232BBB
:1011900041F4209102013091030130932C022093FD
:1011A0002B0220910001309101012115310541F4FC
:1011B0002DB73EB74091040150910501241B350B1A
:1011C000E0912B02F0912C02E217F307A0F42E1B02
:1011D0003F0B2817390778F0AC014E5F5F4F24179B
:1011E000350748F04E0F5F1F50932C0240932B029F
:1011F0008193919302C0E0E0F0E0CF01DF91CF91C5
:1012000008950F931F93CF93DF93009709F48CC039
:10121000FC0132971382128200912D0210912E024E
:101220000115110581F420813181820F931F2091D6
:101230002B0230912C022817390779F5F0932C02F4
:10124000E0932B0271C0D80140E050E0AE17BF0719
:1012500050F412962D913C911397AD012115310553
:1012600009F1D901F3CF9D01DA0133832283608133
:101270007181860F971F8217930769F4EC0128810B
:101280003981260F371F2E5F3F4F318320838A819C
:101290009B8193838283452B29F4F0932E02E09364
:1012A0002D0242C01396FC93EE931297ED014991E3
:1012B00059919E01240F351FE217F30771F48081C5
:1012C0009181840F951F029611969C938E93828133
:1012D000938113969C938E931297E0E0F0E0D801EF
:1012E00012968D919C911397009719F0F8018C013B
:1012F000F6CF8D919C9198012E5F3F4F820F931FE7
:1013000020912B0230912C022817390769F430976D
:1013100029F410922E0210922D0202C01382128222
:1013200010932C0200932B02DF91CF911F910F910C
:101330000895A0E0B0E0EFE9F9E00C94500EEC0164
:10134000009721F4CB010E946C08B8C0FC01E60FA5
:10135000F71F9C0122503109E217F30708F4ACC0D3
:10136000D9010D911C91119706171707B0F00530A0
:10137000110508F49FC0C80104978617970708F461
:1013800099C002501109061B170B019311936D931D
:101390007C93CF010E9401098DC05B01A01AB10AA4
:1013A0004C01800E911EA0912D02B0912E0240E0C2
:1013B00050E0E12CF12C109709F44AC0A815B905AA
:1013C000D1F56D907C901197630182E0C80ED11C1D
:1013D000CA14DB0480F1A3014A195B096A0182E0A7
:1013E000C80ED11C1296BC9012971396AC91B5E022
:1013F000CB16D10440F0B282A38351834083D9013C
:101400006D937C930AC00E5F1F4FC301800F911F25
:10141000F90191838083EB2DFA2FE114F10431F06F
:10142000D7011396FC93EE93129744C0F0932E02CB
:10143000E0932D023FC08D919C9111974817590759
:1014400008F4AC017D0112960D90BC91A02DB3CF94
:1014500080912B0290912C0288159905E1F4461792
:101460005707C8F48091000190910101009741F461
:101470008DB79EB74091040150910501841B950BD7
:10148000E817F907C8F4F0932C02E0932B02F90156
:10149000718360830FC0CB010E946C087C010097B0
:1014A00059F0A801BE010E94680ACE010E940109FC
:1014B000C70104C0CE0102C080E090E0CDB7DEB726
:1014C000EEE00C946C0E81E090E0F8940C94B40E75
:1014D000FB01DC0102C001900D9241505040D8F751
:1014E0000895FB01DC0101900D920020E1F70895C1
:1014F000FB01DC014150504048F001900D9200206A
:10150000C9F701C01D9241505040E0F708958F92F5
:101510009F92AF92BF92CF92DF92EF92FF92CF93C2
:10152000DF93EC01688179818A819B816115710566
:101530008105910521F464E279ED8BE597E02DE1D9
:1015400033EF41E050E00E941A0E49015A019B011D
:10155000AC01A7EAB1E40E94390E6B017C01ACEE4C
:10156000B4EFA50194010E94470EDC01CB018C0D64
:101570009D1DAE1DBF1DB7FF03C00197A109B04857
:1015800088839983AA83BB83BC01CD019F77DF91B8
:10159000CF91FF90EF90DF90CF90BF90AF909F9052
:1015A0008F9008950E94870A089586E091E00E9436
:1015B000870A0895609306017093070180930801DC
:1015C000909309010895662777270C94750BFC0109
:1015D00088279927E89421912032E9F3293010F0E7
:1015E0002E30C8F32B3241F02D3239F4689404C008
:1015F0000E946D0B820F911D219120532A30C0F360
:101600001EF4909581959F4F08951F93FC01992793
:101610008827BC01E89411911032E9F3193010F0D9
:101620001E30C8F31B3251F01D3249F4689406C0D5
:101630000E94580B610F711D811D911D1191105356
:101640001A30B0F33EF490958095709561957F4F78
:101650008F4F9F4F1F91089549E252E00E94310B36
:101660000895FA01A191B081009719F41097E1F063
:10167000CD01DC01CD010D90002011F4C00113C09B
:10168000FB012191222319F02015D9F7F3CFFB019B
:101690002191201519F41E92119606C02223C1F73C
:1016A0000D900020A1F7D001FA01A193B083089515
:1016B000592F482F372F262F660F771F881F991F06
:1016C000660F771F881F991F620F731F841F951F56
:1016D000660F771F881F991F08957AE0979F902DB6
:1016E000879F802D910D11240895A0E0B0E0EBE7D5
:1016F000FBE00C94500EEC017B016115710519F0B3
:10170000DB018D939C938E010F5F1F4F7880872D97
:1017100090E00E94D20C892B11F0E801F4CFBDE2D9
:101720007B1205C00F5F1F4F7980C1E008C0EBE25C
:101730007E1204C08E010E5F1F4F7980C0E06801E9
:10174000F1E0CF1AD10843E050E060EC70E0C60150
:101750000E94DB0C892BF1F4680122E0C20ED11C3F
:1017600045E050E06BEB70E0C6010E94DB0C892B7A
:1017700021F4680187E0C80ED11CE114F10419F0CE
:10178000D701CD92DC92C111FFC060E070E080E82B
:101790009FE703C143E050E068EB70E0C6010E94A0
:1017A000DB0C892B51F4E114F10409F4F2C00E5F53
:1017B0001F4FF70111830083ECC0680160E070E007
:1017C000CB0100E010E0F601D0EDD70DDA3058F58E
:1017D0002C2F2260622E2C2F2870C2FF05C02111F1
:1017E00028C00F5F1F4F25C0222311F0015011099F
:1017F000A5E0B0E09B01AC010E94390E4B015C01F9
:10180000880C991CAA1CBB1CC501B4016D0F711D6D
:10181000811D911D6839A9E97A078A07A9E19A070C
:1018200040F0C66005C0DE3F51F4C3FD44C0C8604F
:101830006C2EBFEFCB1ADB0A7080C62DC4CF2D2FC4
:101840002F7D2531C1F540814D3211F4C06106C0B4
:101850004B3221F0319621E030E006C03296D601BD
:1018600011964C9122E030E0A0EDA40FAA3018F0C0
:10187000E21BF30B20C040E050E04038BCE05B07C7
:101880005CF49A01220F331F220F331F420F531FA4
:10189000440F551F4A0F511D3196DF0111972C91AE
:1018A000A0EDA20FAA3048F3C4FF03C051954195A3
:1018B0005109040F151FC1FF07C0E114F10421F005
:1018C0003197D701ED93FC930E94F80CC370C3309D
:1018D00019F06B017C0106C06B017C01F7FAF094F2
:1018E000F7F8F09420E030E0A901C701B6010E94AA
:1018F000F30C882309F445C017FF06C01195019524
:101900001109C7EDD0E002C0CFEED0E05E01B8E132
:10191000AB1AB1084601BE2DAF2D90E2E92EF12C95
:101920000E151F0584F0FE012591359145915491C6
:10193000B4018B2F9A2F0E94590D4B01B82FA92F5C
:101940000E191F09EDCF2497F594E794CA15DB050E
:1019500039F76401EB2EFA2E8E2D880F8F2D881FFC
:101960008F3F49F020E030E0A901C701B6010E9495
:10197000F30C811106C082E290E0909330028093D4
:101980002F02C701B60109C060E070E080E89FEF58
:1019900004C060E070E080EC9FE7CDB7DEB7EEE01A
:1019A0000C946C0E91110C94C60D803219F0895074
:1019B0008550C8F70895FB01DC014150504088F084
:1019C0008D9181341CF08B350CF4805E659161340F
:1019D0001CF06B350CF4605E861B611171F3990B82
:1019E0000895881BFCCF0E94350D08F481E008950E
:1019F000E89409C097FB3EF49095809570956195A9
:101A00007F4F8F4F9F4F9923A9F0F92F96E9BB275E
:101A10009395F695879577956795B795F111F8CFDA
:101A2000FAF4BB0F11F460FF1BC06F5F7F4F8F4F45
:101A30009F4F16C0882311F096E911C0772321F03B
:101A40009EE8872F762F05C0662371F096E8862FD3
:101A500070E060E02AF09A95660F771F881FDAF72A
:101A6000880F9695879597F90895990F0008550F57
:101A7000AA0BE0E8FEEF16161706E807F907C0F014
:101A800012161306E407F50798F0621B730B840B1C
:101A9000950B39F40A2661F0232B242B252B21F4F6
:101AA00008950A2609F4A140A6958FEF811D811D96
:101AB00008950E946C0D0C94E00D0E94D20D38F038
:101AC0000E94D90D20F0952311F00C94C90D0C94AF
:101AD000CF0D11240C94140E0E94F10D70F3959FFC
:101AE000C1F3950F50E0551F629FF001729FBB2715
:101AF000F00DB11D639FAA27F00DB11DAA1F649FB1
:101B00006627B00DA11D661F829F2227B00DA11D63
:101B1000621F739FB00DA11D621F839FA00D611DE9
:101B2000221F749F3327A00D611D231F849F600D0A
:101B3000211D822F762F6A2F11249F5750409AF033
:101B4000F1F088234AF0EE0FFF1FBB1F661F771FBF
:101B5000881F91505040A9F79E3F510580F00C948A
:101B6000C90D0C94140E5F3FE4F3983ED4F38695B0
:101B700077956795B795F795E7959F5FC1F7FE2B2A
:101B8000880F911D9695879597F90895992788272D
:101B9000089597F99F6780E870E060E008959FEFEF
:101BA00080EC089500240A941616170618060906F4
:101BB000089500240A9412161306140605060895C3
:101BC000092E0394000C11F4882352F0BB0F40F44B
:101BD000BF2B11F460FF04C06F5F7F4F8F4F9F4F8B
:101BE000089557FD9058440F551F59F05F3F71F00D
:101BF0004795880F97FB991F61F09F3F79F0879574
:101C00000895121613061406551FF2CF4695F1DFFC
:101C100008C0161617061806991FF1CF869571058C
:101C2000610508940895E894BB2766277727CB01C0
:101C300097F90895052E97FB1EF400940E94310E2B
:101C400057FD07D00E94830E07FC03D04EF40C947E
:101C5000310E50954095309521953F4F4F4F5F4F36
:101C6000089590958095709561957F4F8F4F9F4F08
:101C700008950E94A50EA59F900DB49F900DA49F5E
:101C8000800D911D11240895B7FF0C94390E0E9408
:101C9000390E821B930B08952F923F924F925F92C1
:101CA0006F927F928F929F92AF92BF92CF92DF926C
:101CB000EF92FF920F931F93CF93DF93CDB7DEB7D1
:101CC000CA1BDB0B0FB6F894DEBF0FBECDBF099465
:101CD0002A88398848885F846E847D848C849B84BC
:101CE000AA84B984C884DF80EE80FD800C811B81CA
:101CF000AA81B981CE0FD11D0FB6F894DEBF0FBEF9
:101D0000CDBFED010895A1E21A2EAA1BBB1BFD0158
:101D10000DC0AA1FBB1FEE1FFF1FA217B307E407CA
:101D2000F50720F0A21BB30BE40BF50B661F771F22
:101D3000881F991F1A9469F7609570958095909502
:101D40009B01AC01BD01CF010895A29FB001B39FDB
:101D5000C001A39F700D811D1124911DB29F700DB4
:101D6000811D1124911D089510E0CBE7D0E004C03F
:101D7000FE010E9437082196CC37D107C9F7F894A5
:021D8000FFCF93
:101D820000003102800001000000B6B6FFC6B6FFB7
:101D9200DAB6FFEAB6FFFFB6FFFFB6EAFFB6DAFF32
:101DA200B6C6FFB6B6FFC6B6FFDAB6FFEAB6FFFFA3
:101DB200B6EAFFB6DAFFB6C6FFB6B6FFB6B6FFC6DC
:101DC200B6FFDAB6FFEAB6FFFFB6EAFFB6DAFFB64B
:101DD200C6FF000000004901C5001201F000040125
:0C1DE200900120002C000D0A005E0000A3
:00000001FF
