:100000000C947C000C94A4000C94A4000C94A40008
:100010000C94A4000C94A4000C94A4000C94A400D0
:100020000C94A4000C94A4000C94A4000C94A400C0
:100030000C94A4000C94A4000C94A4000C94A400B0
:100040000C9471050C94A4000C943F050C941905B4
:100050000C94A4000C94A4000C94A4000C94A40090
:100060000C94A4000C94A4000000000800020100FD
:100070000003040700000000000000000000000072
:10008000250028002B0000000000240027002A0083
:10009000040404040404040402020202020203032E
:1000A0000303030301020408102040800102040836
:1000B00010200102040810204E414E494E49545967
:1000C000494E46CDCCCC3D0AD7233C17B7D1387723
:1000D000CC2B329595E6241FB14F0A000020410039
:1000E00000C84200401C4620BCBE4CCA1B0E5AAE83
:1000F000C59D7400BB05710711241FBECFEFD8E06A
:10010000DEBFCDBF11E0A0E0B1E0EAE2FCE102C059
:1001100005900D92AE31B107D9F721E0AEE1B1E023
:1001200001C01D92AA3EB207E1F710E0CBE7D0E094
:1001300004C02197FE010E948B07CA37D107C9F777
:100140000E94FF050C94080E0C94000090E0FC0146
:10015000EC55FF4F2491FC01E057FF4F8491882319
:1001600099F090E0880F991FFC01EA57FF4FA59185
:10017000B491FC01E458FF4F859194918FB7F894A6
:10018000EC91E22BEC938FBF0895CF92DF92EF9228
:10019000FF920F931F93CF93DF936C017A018B0132
:1001A000C0E0D0E0CE15DF0589F0D8016D918D015A
:1001B000D601ED91FC910190F081E02DC6010995E9
:1001C000892B11F47E0102C02196ECCFC701DF918B
:1001D000CF911F910F91FF90EF90DF90CF900895F6
:1001E000FC01918D828D981761F0828DDF01A80F3F
:1001F000B11D5D968C91928D9F5F9F73928F90E061
:1002000008958FEF9FEF0895FC01918D828D9817CF
:1002100031F0828DE80FF11D858D90E008958FEF0C
:100220009FEF0895FC01918D228D892F90E0805CD5
:100230009F4F821B91098F739927089586E391E060
:100240000E94120121E0892B09F420E0822F0895F9
:10025000FC01848DDF01A80FB11DA35ABF4F2C9163
:10026000848D90E001968F739927848FA689B78932
:100270002C93A089B1898C9180648C93938D848D0B
:10028000981306C00288F389E02D80818F7D8083DA
:100290000895EF92FF920F931F93CF93DF93EC019A
:1002A00081E0888F9B8D8C8D981305C0E889F98932
:1002B000808185FD24C0F62E0B8D10E00F5F1F4F4F
:1002C0000F731127E02E8C8DE8120CC00FB607FCBF
:1002D000FACFE889F989808185FFF5CFCE010E94A8
:1002E0002801F1CF8B8DFE01E80FF11DE35AFF4F7E
:1002F000F0820B8FEA89FB898081806207C0EE89DA
:10030000FF896083E889F98980818064808381E046
:1003100090E0DF91CF911F910F91FF90EF900895A2
:10032000CF93DF93EC01888D8823C9F0EA89FB899C
:10033000808185FD05C0A889B9898C9186FD0FC093
:100340000FB607FCF5CF808185FFF2CFA889B98968
:100350008C9185FFEDCFCE010E942801E7CFDF9180
:10036000CF91089590E0FC01E859FF4F3491FC01D2
:10037000EC55FF4F2491FC01E057FF4FE491EE2331
:1003800009F43BC0332339F1333091F038F4313084
:10039000A9F0323001F584B58F7D12C0373091F06D
:1003A0003830A1F03430B9F4809180008F7D03C0E3
:1003B000809180008F77809380000DC084B58F7707
:1003C00084BD09C08091B0008F7703C08091B000D8
:1003D0008F7D8093B000F0E0EE0FFF1FE458FF4FD9
:1003E000A591B4918FB7F894EC91611103C0209559
:1003F0002E2301C02E2B2C938FBF08951F93CF93D4
:10040000DF93182FEB010E94A600209711F460E003
:1004100004C0CF3FD10539F461E0812FDF91CF9146
:100420001F910C94B201E12FF0E0E859FF4FE491E5
:10043000E330F9F048F4E130B9F0E230A1F584B5E9
:10044000806284BDC8BD34C0E730E9F0E83019F1FE
:10045000E43049F580918000806280938000D093E1
:100460008B00C0938A0024C084B5806884BDC7BD5A
:100470001FC080918000806880938000D0938900A5
:10048000C093880015C08091B00080688093B00050
:10049000C093B3000DC08091B00080628093B00023
:1004A000C093B40005C0C038D1050CF0B5CFAFCFB4
:1004B000DF91CF911F910895AF92BF92CF92DF92BB
:1004C000EF92FF920F931F93CF93DF939C012836F7
:1004D00081E0380710F027E631E0FB016536710551
:1004E00010F0E4E6F0E07A014536510518F084E6B4
:1004F000E82EF12C49EA51E02D33310570F4249FA8
:10050000C001259F900D349F900D112464E670E08A
:100510000E947707D62FC0E062C02937310590F4DA
:10052000249FC001259F900D349F900D11248C595C
:10053000934664E670E00E947707262F2095C0E07E
:10054000DFEF4EC0253B310580F4249FC001259F7D
:10055000900D349F900D11248853974C64E670E001
:100560000E947707C62FDFEF13C0213F310590F4BB
:10057000249FC001259F900D349F900D1124845D10
:100580009A4264E670E00E947707D62FD095CFEFAD
:1005900020E026C02D3281E0380788F4249FC00176
:1005A000259F900D349F900D112480579E4864E63E
:1005B00070E00E947707262FCFEFD0E011C0249F74
:1005C000C001259F900D349F900D11248C50924FA7
:1005D00064E670E00E947707C62FC095D0E02FEF49
:1005E00004E610E05801AE1ABF0AEFEFF0E0AF01E9
:1005F000421B51094A9DC0014B9D900D5A9D900D83
:100600001124B8010E947707362FAF014D1B510905
:100610004A9DC0014B9D900D5A9D900D1124B8012B
:100620000E947707C62EEC1BF109EA9DC001EB9DE5
:10063000900DFA9D900D1124B8010E947707D62ED7
:10064000230F2E9DC0012F9D900D1124B8010E94F3
:1006500077078091D9010E94FE01DC0DDE9DC0016B
:10066000DF9D900D1124B8010E9477078091DA0177
:100670000E94FE01CD0DCE9DC001CF9D900D112495
:10068000B8010E9477078091DB01DF91CF911F9124
:100690000F91FF90EF90DF90CF90BF90AF900C94B0
:1006A000FE014F925F926F927F928F929F92AF92D4
:1006B000BF92CF92DF92EF92FF920F931F93CF934F
:1006C000DF93CDB7DEB7C85CD1090FB6F894DEBFB3
:1006D0000FBECDBFFC012481358121153105B1F05C
:1006E0008901015011092017310708F48901FC0123
:1006F00060817181A801CE0101960E94CC09E1E0E0
:10070000F0E0EC0FFD1FE00FF11F10826AE171E0D5
:10071000CE0101960E94800A7C010E943B0A8C0156
:1007200081309105B9F56AE171E080E090E00E94C6
:10073000800A6C016AE171E080E090E00E94800A2A
:100740007C016AE171E080E090E00E94800A8C0107
:10075000C6010E94370A2B013C01C7010E94370ADB
:100760006B017C01C8010E94370A0E9491074B016E
:100770005C01C701B6010E9491076B017C01C301B6
:10078000B2010E949107DC01CB01A401B6010E94D5
:100790005C0296C082309105B1F56AE171E080E0BB
:1007A00090E00E94800A6C016AE171E080E090E0D4
:1007B0000E94800A7C016AE171E080E090E00E9482
:1007C000800A8C01C6010E943B0A6C01C7010E948D
:1007D0003B0A7C01C8010E943B0A8C01B6017727C5
:1007E0008091D9010E94FE01B70177278091DA013B
:1007F0000E94FE01B80177278091DB010E94FE0173
:100800001092D3015DC0039709F56AE171E080E0C1
:1008100090E00E94800A7C016AE171E080E090E053
:100820000E94800A0E943B0A182FC7010E94590AA1
:1008300023E02093D3016093D4017093D50180937A
:10084000D6019093D7011093D8013AC0C7010E94F6
:10085000590A6430710581059105E1F46AE171E09E
:1008600080E090E00E94800A0E94590A6B017C019E
:100870006AE171E080E090E00E94800A84E0809369
:10088000D301C092D401D092D501E092D601F0926A
:10089000D70116C00530110599F46AE171E080E0D6
:1008A00090E00E94800A0E94590A25E02093D3011B
:1008B0006093D4017093D5018093D6019093D701B2
:1008C000C853DF4F0FB6F894DEBF0FBECDBFDF9128
:1008D000CF911F910F91FF90EF90DF90CF90BF903D
:1008E000AF909F908F907F906F905F904F90089502
:1008F0000E94B7090F931F93CF93DF93EC01888178
:100900009981009729F02A813B812617370788F4BF
:100910008B016F5F7F4F0E94ED08009761F0998314
:1009200088831B830A832C813D81232B11F4FC01D6
:10093000108281E001C080E0DF91CF911F910F9183
:100940000895EF92FF920F931F93CF93DF93EC01E3
:100950007B018A01BA010E947A04288139818111C0
:100960000DC02115310519F0C9010E9455081982E1
:1009700018821D821C821B821A8206C01D830C8372
:10098000B701C9010E94C509CE01DF91CF911F9126
:100990000F91FF90EF900895EF92FF920F931F93A6
:1009A000CF93DF9300D0CDB7DEB7EE24E39486E398
:1009B00091E00E941201892B69F186E391E00E9487
:1009C000F000F82E89831A820091E0011091E10174
:1009D0000F5F1F4FB8018CED91E00E947A048823CD
:1009E00099F02091DC013091DD018091E00190913E
:1009F000E101BE016F5F7F4F820F931F0E94C50907
:100A00001093E1010093E0018AE0F812D0CFE09268
:100A10003101CDCF0F900F90DF91CF911F910F91AA
:100A2000FF90EF9008950E941E0181110C94CC0458
:100A300008951F920F920FB60F9211242F933F9398
:100A40004F935F936F937F938F939F93AF93BF93D6
:100A5000EF93FF9386E391E00E942801FF91EF91CD
:100A6000BF91AF919F918F917F916F915F914F91C6
:100A70003F912F910F900FBE0F901F9018951F92CE
:100A80000F920FB60F9211242F938F939F93EF9392
:100A9000FF93E0914601F09147018081E0914C0184
:100AA000F0914D0182FD12C0908180914F018F5FC6
:100AB0008F7320915001821751F0E0914F01F0E0C7
:100AC000EA5CFE4F958F80934F0101C08081FF91BA
:100AD000EF919F918F912F910F900FBE0F901F90CC
:100AE00018951F920F920FB60F9211242F933F93D8
:100AF0008F939F93AF93BF93809123019091240193
:100B0000A0912501B09126013091220123E0230F0D
:100B10002D3720F40196A11DB11D05C026E8230F35
:100B20000296A11DB11D2093220180932301909371
:100B30002401A0932501B093260180911E0190917C
:100B40001F01A0912001B09121010196A11DB11DAD
:100B500080931E0190931F01A0932001B093210167
:100B6000BF91AF919F918F913F912F910F900FBEA9
:100B70000F901F901895E6E3F1E01382128288EE41
:100B800093E0A0E0B0E084839583A683B7838EE0F2
:100B900091E09183808385EC90E09587848784EC55
:100BA00090E09787868780EC90E0918B808B81EC3A
:100BB00090E0938B828B82EC90E0958B848B86EC1B
:100BC00090E0978B868B118E128E138E148EECED27
:100BD000F1E011821082138212821582148241E0A8
:100BE00050E06CE171E0CF010E94A104E3EDF1E07F
:100BF00085E0868386E0878383E080870895CF93AE
:100C0000DF93CDB7DEB72A970FB6F894DEBF0FBEDD
:100C1000CDBF789484B5826084BD84B5816084BD85
:100C200085B5826085BD85B5816085BD80916E008A
:100C3000816080936E0010928100809181008260BB
:100C400080938100809181008160809381008091F8
:100C500080008160809380008091B10084608093E7
:100C6000B1008091B00081608093B00080917A00E3
:100C7000846080937A0080917A00826080937A0009
:100C800080917A00816080937A0080917A008068F8
:100C900080937A001092C10085E00E94A60086E051
:100CA0000E94A60083E00E94A600E0914601F09118
:100CB000470182E08083E0914201F091430110827C
:100CC000E0914401F09145018FEC808310924E0138
:100CD000E0914A01F0914B0186E08083E091480168
:100CE000F0914901808180618083E0914801F09119
:100CF0004901808188608083E0914801F091490139
:100D0000808180688083E0914801F0914901808171
:100D10008F7D808368EC70E08CED91E00E947A0416
:100D2000C12CD12C7601D3942FB7F8948091230154
:100D300090912401A0912501B09126012FBF8093AD
:100D4000320190933301A0933401B0933501809127
:100D50003101882339F11A8219821C821B821E827A
:100D60001D826091DC017091DD016115710541F01A
:100D70004091E0015091E101CE0101960E94A10451
:100D8000CE0101960E94510389819A810E945508E3
:100D900040E050E06DE171E08CED91E00E94A10433
:100DA000109231018091320190913301A091340170
:100DB000B09135013090D8014091D4015091D501C6
:100DC0006091D6017091D7012091D3012330B9F5FC
:100DD00000912F0110913001083621E0120754F5DF
:100DE00040902B0150902C0160902D0170902E01AD
:100DF0004C015D0184189508A608B708841695066D
:100E0000A606B70608F46AC080932B0190932C01C4
:100E1000A0932D01B0932E0144E650E064E670E00B
:100E2000C8010E945C02030D111D10933001009354
:100E30002F0154C01092300110922F014FC0243066
:100E400009F04CC00091270110912801209129013F
:100E500030912A014C015D01801A910AA20AB30A5D
:100E600084169506A606B706C8F1809327019093CD
:100E70002801A0932901B0932A010E94290A6F83B7
:100E8000788789879A870E94290A2B013C010E9452
:100E9000290A4B015C016F81788589859A85A701B4
:100EA00096010E946E0D70E08091D9010E94FE01B2
:100EB000C301B201A70196010E946E0D70E08091FE
:100EC000DA010E94FE01C501B401A70196010E944A
:100ED0006E0D70E08091DB010E94FE010E941305FF
:100EE00023CF8091DC019091DD010C945508AA1B61
:100EF000BB1B51E107C0AA1FBB1FA617B70710F005
:100F0000A61BB70B881F991F5A95A9F78095909536
:100F1000BC01CD010895EE0FFF1F0590F491E02D67
:100F200009940E944D0D88F09F5798F0B92F99278A
:100F3000B751B0F0E1F0660F771F881F991F1AF0C4
:100F4000BA95C9F714C0B13091F00E94670DB1E0B5
:100F500008950C94670D672F782F8827B85F39F0B4
:100F6000B93FCCF3869577956795B395D9F73EF45D
:100F700090958095709561957F4F8F4F9F4F089505
:100F8000CF93DF938230910510F482E090E0E091FE
:100F9000E601F091E70120E030E0C0E0D0E03097DA
:100FA00011F14081518148175907C0F0481759077E
:100FB00061F482819381209719F09B838A832BC0EF
:100FC0009093E7018093E60126C02115310519F0C1
:100FD0004217530718F49A01BE01DF01EF010280A6
:100FE000F381E02DDCCF2115310509F1281B390BE8
:100FF0002430310590F412968D919C9113976115D0
:10100000710521F0FB019383828304C09093E70173
:101010008093E601FD01329644C0FD01E20FF31F0B
:1010200081939193225031092D933C933AC02091A2
:10103000E4013091E501232B41F42091020130912C
:1010400003013093E5012093E401209100013091E8
:1010500001012115310541F42DB73EB7409104013E
:1010600050910501241B350BE091E401F091E5015D
:10107000E217F307A0F42E1B3F0B2817390778F06F
:10108000AC014E5F5F4F2417350748F04E0F5F1FCE
:101090005093E5014093E4018193919302C0E0E015
:1010A000F0E0CF01DF91CF9108950F931F93CF937D
:1010B000DF93009709F48CC0FC01329713821282EF
:1010C0000091E6011091E7010115110581F42081DD
:1010D0003181820F931F2091E4013091E50128179F
:1010E000390779F5F093E501E093E40171C0D80187
:1010F00040E050E0AE17BF0750F412962D913C919E
:101100001397AD012115310509F1D901F3CF9D01E7
:10111000DA013383228360817181860F971F8217E2
:10112000930769F4EC0128813981260F371F2E5F60
:101130003F4F318320838A819B8193838283452B18
:1011400029F4F093E701E093E60142C01396FC9383
:10115000EE931297ED01499159919E01240F351F8D
:10116000E217F30771F480819181840F951F029635
:1011700011969C938E938281938113969C938E9368
:101180001297E0E0F0E0D80112968D919C911397B0
:10119000009719F0F8018C01F6CF8D919C91980180
:1011A0002E5F3F4F820F931F2091E4013091E501A4
:1011B0002817390769F4309729F41092E701109243
:1011C000E60102C0138212821093E5010093E4014C
:1011D000DF91CF911F910F910895A0E0B0E0E3EF70
:1011E000F8E00C94A40DEC01009721F4CB010E94CF
:1011F000C007B8C0FC01E60FF71F9C01225031095F
:10120000E217F30708F4ACC0D9010D911C911197B6
:1012100006171707B0F00530110508F49FC0C80184
:1012200004978617970708F499C002501109061B06
:10123000170B019311936D937C93CF010E94550876
:101240008DC05B01A01AB10A4C01800E911EA091C5
:10125000E601B091E70140E050E0E12CF12C10975D
:1012600009F44AC0A815B905D1F56D907C90119785
:10127000630182E0C80ED11CCA14DB0480F1A30113
:101280004A195B096A0182E0C80ED11C1296BC9013
:1012900012971396AC91B5E0CB16D10440F0B28210
:1012A000A38351834083D9016D937C930AC00E5F61
:1012B0001F4FC301800F911FF90191838083EB2D94
:1012C000FA2FE114F10431F0D7011396FC93EE9359
:1012D000129744C0F093E701E093E6013FC08D917F
:1012E0009C9111974817590708F4AC017D0112969B
:1012F0000D90BC91A02DB3CF8091E4019091E501B8
:1013000088159905E1F446175707C8F48091000144
:1013100090910101009741F48DB79EB7409104016F
:1013200050910501841B950BE817F907C8F4F09359
:10133000E501E093E401F901718360830FC0CB0103
:101340000E94C0077C01009759F0A801BE010E94CD
:10135000BC09CE010E945508C70104C0CE0102C0DD
:1013600080E090E0CDB7DEB7EEE00C94C00D81E0F8
:1013700090E0F8940C94080EFB01DC0102C001908F
:101380000D9241505040D8F70895FB01DC010190C7
:101390000D920020E1F70895FB01DC01415050401F
:1013A00048F001900D920020C9F701C01D924150F4
:1013B0005040E0F708958F929F92AF92BF92CF92E4
:1013C000DF92EF92FF92CF93DF93EC0168817981F6
:1013D0008A819B81611571058105910521F464E283
:1013E00079ED8BE597E02DE133EF41E050E00E948D
:1013F0006E0D49015A019B01AC01A7EAB1E40E94BC
:101400008D0D6B017C01ACEEB4EFA50194010E943F
:101410009B0DDC01CB018C0D9D1DAE1DBF1DB7FFCB
:1014200003C00197A109B04888839983AA83BB832D
:10143000BC01CD019F77DF91CF91FF90EF90DF90BE
:10144000CF90BF90AF909F908F9008950E94DB093E
:10145000089586E091E00E94DB09089560930601FB
:1014600070930701809308019093090108956627FE
:1014700077270C94C90AFC0188279927E8942191C1
:101480002032E9F3293010F02E30C8F32B3241F02E
:101490002D3239F4689404C00E94C10A820F911D54
:1014A000219120532A30C0F31EF4909581959F4FCF
:1014B00008951F93FC0199278827BC01E894119196
:1014C0001032E9F3193010F01E30C8F31B3251F01E
:1014D0001D3249F4689406C00E94AC0A610F711D68
:1014E000811D911D119110531A30B0F33EF4909567
:1014F0008095709561957F4F8F4F9F4F1F910895F5
:1015000042EE51E00E94850A0895FA01A191B0814E
:10151000009719F41097E1F0CD01DC01CD010D9099
:10152000002011F4C00113C0FB012191222319F006
:101530002015D9F7F3CFFB012191201519F41E9244
:10154000119606C02223C1F70D900020A1F7D0010B
:10155000FA01A193B0830895592F482F372F262FD2
:10156000660F771F881F991F660F771F881F991FA7
:10157000620F731F841F951F660F771F881F991FA7
:1015800008957AE0979F902D879F802D910D1124CB
:101590000895A0E0B0E0EFECFAE00C94A40DEC01AB
:1015A0007B016115710519F0DB018D939C938E0110
:1015B0000F5F1F4F7880872D90E00E94260C892BAB
:1015C00011F0E801F4CFBDE27B1205C00F5F1F4FA1
:1015D0007980C1E008C0EBE27E1204C08E010E5F8C
:1015E0001F4F7980C0E06801F1E0CF1AD10843E0D5
:1015F00050E060EC70E0C6010E942F0C892BF1F4E2
:10160000680122E0C20ED11C45E050E06BEB70E0B7
:10161000C6010E942F0C892B21F4680187E0C80EB7
:10162000D11CE114F10419F0D701CD92DC92C11163
:10163000FFC060E070E080E89FE703C143E050E056
:1016400068EB70E0C6010E942F0C892B51F4E11465
:10165000F10409F4F2C00E5F1F4FF70111830083FC
:10166000ECC0680160E070E0CB0100E010E0F60142
:10167000D0EDD70DDA3058F52C2F2260622E2C2FAA
:101680002870C2FF05C0211128C00F5F1F4F25C061
:10169000222311F001501109A5E0B0E09B01AC013B
:1016A0000E948D0D4B015C01880C991CAA1CBB1C6F
:1016B000C501B4016D0F711D811D911D6839A9E926
:1016C0007A078A07A9E19A0740F0C66005C0DE3FA5
:1016D00051F4C3FD44C0C8606C2EBFEFCB1ADB0AC7
:1016E0007080C62DC4CF2D2F2F7D2531C1F54081AF
:1016F0004D3211F4C06106C04B3221F0319621E029
:1017000030E006C03296D60111964C9122E030E0CE
:10171000A0EDA40FAA3018F0E21BF30B20C040E0AC
:1017200050E04038BCE05B075CF49A01220F331FA5
:10173000220F331F420F531F440F551F4A0F511DD5
:101740003196DF0111972C91A0EDA20FAA3048F33A
:10175000C4FF03C0519541955109040F151FC1FFE6
:1017600007C0E114F10421F03197D701ED93FC9308
:101770000E944C0CC370C33019F06B017C0106C091
:101780006B017C01F7FAF094F7F8F09420E030E078
:10179000A901C701B6010E94470C882309F445C07E
:1017A00017FF06C0119501951109C7EDD0E002C0E1
:1017B000CFEED0E05E01B8E1AB1AB1084601BE2D14
:1017C000AF2D90E2E92EF12C0E151F0584F0FE01DD
:1017D0002591359145915491B4018B2F9A2F0E94F8
:1017E000AD0C4B01B82FA92F0E191F09EDCF24976F
:1017F000F594E794CA15DB0539F76401EB2EFA2E50
:101800008E2D880F8F2D881F8F3F49F020E030E00C
:10181000A901C701B6010E94470C811106C082E2EE
:1018200090E09093E9018093E801C701B60109C0F7
:1018300060E070E080E89FEF04C060E070E080EC62
:101840009FE7CDB7DEB7EEE00C94C00D91110C947C
:101850001A0D803219F089508550C8F70895FB01A0
:10186000DC014150504088F08D9181341CF08B3563
:101870000CF4805E659161341CF06B350CF4605E95
:10188000861B611171F3990B0895881BFCCF0E9490
:10189000890C08F481E00895E89409C097FB3EF4B0
:1018A00090958095709561957F4F8F4F9F4F9923AD
:1018B000A9F0F92F96E9BB279395F695879577952B
:1018C0006795B795F111F8CFFAF4BB0F11F460FFEB
:1018D0001BC06F5F7F4F8F4F9F4F16C0882311F043
:1018E00096E911C0772321F09EE8872F762F05C057
:1018F000662371F096E8862F70E060E02AF09A95F2
:10190000660F771F881FDAF7880F9695879597F9E6
:101910000895990F0008550FAA0BE0E8FEEF161680
:101920001706E807F907C0F012161306E407F507D3
:1019300098F0621B730B840B950B39F40A2661F047
:10194000232B242B252B21F408950A2609F4A140EA
:10195000A6958FEF811D811D08950E94C00C0C94E7
:10196000340D0E94260D38F00E942D0D20F0952395
:1019700011F00C941D0D0C94230D11240C94680D82
:101980000E94450D70F3959FC1F3950F50E0551FD0
:10199000629FF001729FBB27F00DB11D639FAA27C4
:1019A000F00DB11DAA1F649F6627B00DA11D661F13
:1019B000829F2227B00DA11D621F739FB00DA11D34
:1019C000621F839FA00D611D221F749F3327A00DEE
:1019D000611D231F849F600D211D822F762F6A2F8A
:1019E00011249F5750409AF0F1F088234AF0EE0FEF
:1019F000FF1FBB1F661F771F881F91505040A9F71C
:101A00009E3F510580F00C941D0D0C94680D5F3FB6
:101A1000E4F3983ED4F3869577956795B795F79557
:101A2000E7959F5FC1F7FE2B880F911D96958795CF
:101A300097F9089599278827089597F99F6780E86F
:101A400070E060E008959FEF80EC089500240A9410
:101A50001616170618060906089500240A94121689
:101A60001306140605060895092E0394000C11F4BC
:101A7000882352F0BB0F40F4BF2B11F460FF04C069
:101A80006F5F7F4F8F4F9F4F089557FD9058440FC2
:101A9000551F59F05F3F71F04795880F97FB991FCD
:101AA00061F09F3F79F0879508951216130614068A
:101AB000551FF2CF4695F1DF08C016161706180617
:101AC000991FF1CF86957105610508940895E894F2
:101AD000BB2766277727CB0197F90895052E97FB3B
:101AE0001EF400940E94850D57FD07D00E94D70D6B
:101AF00007FC03D04EF40C94850D5095409530951D
:101B000021953F4F4F4F5F4F089590958095709569
:101B100061957F4F8F4F9F4F08950E94F90DA59FAC
:101B2000900DB49F900DA49F800D911D11240895D8
:101B3000B7FF0C948D0D0E948D0D821B930B0895A1
:101B40002F923F924F925F926F927F928F929F92CD
:101B5000AF92BF92CF92DF92EF92FF920F931F93BB
:101B6000CF93DF93CDB7DEB7CA1BDB0B0FB6F8946C
:101B7000DEBF0FBECDBF09942A88398848885F84AC
:101B80006E847D848C849B84AA84B984C884DF801D
:101B9000EE80FD800C811B81AA81B981CE0FD11D01
:101BA0000FB6F894DEBF0FBECDBFED010895A1E2E0
:101BB0001A2EAA1BBB1BFD010DC0AA1FBB1FEE1FC7
:101BC000FF1FA217B307E407F50720F0A21BB30B12
:101BD000E40BF50B661F771F881F991F1A9469F78E
:101BE00060957095809590959B01AC01BD01CF01EA
:101BF0000895A29FB001B39FC001A39F700D811DE6
:101C00001124911DB29F700D811D1124911D089505
:101C100010E0CBE7D0E004C0FE010E948B072196C4
:0A1C2000CC37D107C9F7F894FFCFC5
:101C2A000000EA01800001000000000000004901F4
:0E1C3A00C5001201F000040190015E002000C0
:00000001FF
