:100000000C947C000C94A4000C94A4000C94A40008
:100010000C94A4000C94A4000C94A4000C94A400D0
:100020000C94A4000C94A4000C94A4000C94A400C0
:100030000C94A4000C94A4000C94A4000C94A400B0
:100040000C944E030C94A4000C94BE030C949803DF
:100050000C94A4000C94A4000C94A4000C94A40090
:100060000C94A4000C94A4000000000800020100FD
:100070000003040700000000000000000000000072
:10008000250028002B0000000000240027002A0083
:10009000040404040404040402020202020203032E
:1000A0000303030301020408102040800102040836
:1000B00010200102040810204E414E494E49545967
:1000C000494E46CDCCCC3D0AD7233C17B7D1387723
:1000D000CC2B329595E6241FB14F0A000020410039
:1000E00000C84200401C4620BCBE4CCA1B0E5AAE83
:1000F000C59D7400F003620711241FBECFEFD8E046
:10010000DEBFCDBF11E0A0E0B1E0EEE2FCE102C055
:1001100005900D92AE31B107D9F721E0AEE1B1E023
:1001200001C01D92A33DB207E1F710E0CBE7D0E09C
:1001300004C02197FE010E948A07CA37D107C9F778
:100140000E942B040C940A0E0C94000090E0FC0119
:10015000EC55FF4F2491FC01E057FF4F8491882319
:1001600099F090E0880F991FFC01EA57FF4FA59185
:10017000B491FC01E458FF4F859194918FB7F894A6
:10018000EC91E22BEC938FBF0895CF92DF92EF9228
:10019000FF920F931F93CF93DF936C017A018B0132
:1001A000C0E0D0E0CE15DF0589F0D8016D918D015A
:1001B000D601ED91FC910190F081E02DC6010995E9
:1001C000892B11F47E0102C02196ECCFC701DF918B
:1001D000CF911F910F91FF90EF90DF90CF900895F6
:1001E000FC01918D828D981761F0828DDF01A80F3F
:1001F000B11D5D968C91928D9F5F9F73928F90E061
:1002000008958FEF9FEF0895FC01918D828D9817CF
:1002100031F0828DE80FF11D858D90E008958FEF0C
:100220009FEF0895FC01918D228D892F90E0805CD5
:100230009F4F821B91098F739927089588E291E05F
:100240000E94120121E0892B09F420E0822F0895F9
:10025000FC01848DDF01A80FB11DA35ABF4F2C9163
:10026000848D90E001968F739927848FA689B78932
:100270002C93A089B1898C9180648C93938D848D0B
:10028000981306C00288F389E02D80818F7D8083DA
:100290000895EF92FF920F931F93CF93DF93EC019A
:1002A00081E0888F9B8D8C8D981305C0E889F98932
:1002B000808185FD24C0F62E0B8D10E00F5F1F4F4F
:1002C0000F731127E02E8C8DE8120CC00FB607FCBF
:1002D000FACFE889F989808185FFF5CFCE010E94A8
:1002E0002801F1CF8B8DFE01E80FF11DE35AFF4F7E
:1002F000F0820B8FEA89FB898081806207C0EE89DA
:10030000FF896083E889F98980818064808381E046
:1003100090E0DF91CF911F910F91FF90EF900895A2
:10032000CF93DF93EC01888D8823C9F0EA89FB899C
:10033000808185FD05C0A889B9898C9186FD0FC093
:100340000FB607FCF5CF808185FFF2CFA889B98968
:100350008C9185FFEDCFCE010E942801E7CFDF9180
:10036000CF91089590E0FC01E859FF4F3491FC01D2
:10037000EC55FF4F2491FC01E057FF4FE491EE2331
:1003800009F43BC0332339F1333091F038F4313084
:10039000A9F0323001F584B58F7D12C0373091F06D
:1003A0003830A1F03430B9F4809180008F7D03C0E3
:1003B000809180008F77809380000DC084B58F7707
:1003C00084BD09C08091B0008F7703C08091B000D8
:1003D0008F7D8093B000F0E0EE0FFF1FE458FF4FD9
:1003E000A591B4918FB7F894EC91611103C0209559
:1003F0002E2301C02E2B2C938FBF08951F93CF93D4
:10040000DF93182FEB010E94A600209711F460E003
:1004100004C0CF3FD10539F461E0812FDF91CF9146
:100420001F910C94B201E12FF0E0E859FF4FE491E5
:10043000E330F9F048F4E130B9F0E230A1F584B5E9
:10044000806284BDC8BD34C0E730E9F0E83019F1FE
:10045000E43049F580918000806280938000D093E1
:100460008B00C0938A0024C084B5806884BDC7BD5A
:100470001FC080918000806880938000D0938900A5
:10048000C093880015C08091B00080688093B00050
:10049000C093B3000DC08091B00080628093B00023
:1004A000C093B40005C0C038D1050CF0B5CFAFCFB4
:1004B000DF91CF911F9108958F929F92AF92BF923B
:1004C0000F931F93CF93DF93CDB7DEB7A1970FB6EE
:1004D000F894DEBF0FBECDBF19A2423008F44AE047
:1004E0008E010F5D1F4F842E912CA12CB12CA501E4
:1004F00094010E946807E62FB901CA010150110951
:10050000EA3014F4E05D01C0E95CD801EC93232BE0
:10051000242B252B61F70115110571F0F8010190CD
:100520000020E9F73197AF01401B510BB80188E279
:1005300091E00E94C50002C080E090E0A1960FB655
:10054000F894DEBF0FBECDBFDF91CF911F910F9109
:10055000BF90AF909F908F9008950E949A0A0F933A
:100560001F93CF93DF93EC0188819981009729F045
:100570002A813B812617370788F48B016F5F7F4FF5
:100580000E94D009009761F0998388831B830A83B6
:100590002C813D81232B11F4FC01108281E001C0EC
:1005A00080E0DF91CF911F910F910895EF92FF921C
:1005B0000F931F93CF93DF93EC017B018A01BA0164
:1005C0000E94AF022881398181110DC021153105AA
:1005D00019F0C9010E943809198218821D821C82F3
:1005E0001B821A8206C01D830C83B701C9010E94B9
:1005F000A80ACE01DF91CF911F910F91FF90EF904C
:100600000895EF92FF920F931F93CF93DF9300D043
:10061000CDB7DEB7EE24E39488E291E00E941201A8
:10062000892B69F188E291E00E94F000F82E89831D
:100630001A820091C9011091CA010F5F1F4FB801C2
:1006400085EC91E00E94AF02882399F02091C501CA
:100650003091C6018091C9019091CA01BE016F5FBE
:100660007F4F820F931F0E94A80A1093CA01009324
:10067000C9018AE0F812D0CFE0921E01CDCF0F90D1
:100680000F90DF91CF911F910F91FF90EF90089500
:100690000E941E0181110C94010308951F920F9274
:1006A0000FB60F9211242F933F938F939F93AF9385
:1006B000BF938091240190912501A0912601B091D2
:1006C00027013091230123E0230F2D3720F40196D9
:1006D000A11DB11D05C026E8230F0296A11DB11D65
:1006E000209323018093240190932501A093260158
:1006F000B093270180911F0190912001A0912101C9
:10070000B09122010196A11DB11D80931F0190930C
:100710002001A0932101B0932201BF91AF919F913D
:100720008F913F912F910F900FBE0F901F901895B2
:100730001F920F920FB60F9211242F933F934F9356
:100740005F936F937F938F939F93AF93BF93EF9339
:10075000FF9388E291E00E942801FF91EF91BF9101
:10076000AF919F918F917F916F915F914F913F9149
:100770002F910F900FBE0F901F9018951F920F9200
:100780000FB60F9211242F938F939F93EF93FF93A4
:10079000E0913801F09139018081E0913E01F091C2
:1007A0003F0182FD12C09081809141018F5F8F7364
:1007B00020914201821751F0E0914101F0E0E85DA3
:1007C000FE4F958F8093410101C08081FF91EF9191
:1007D0009F918F912F910F900FBE0F901F901895A2
:1007E000E8E2F1E01382128288EE93E0A0E0B0E04C
:1007F00084839583A683B7838AE091E09183808385
:1008000085EC90E09587848784EC90E097878687D5
:1008100080EC90E0918B808B81EC90E0938B828BCD
:1008200082EC90E0958B848B86EC90E0978B868BA6
:10083000118E128E138E148EE5ECF1E0118210826F
:10084000138212821582148241E050E066E171E069
:10085000CF010C94D602CF93DF93CDB7DEB7C25D44
:10086000D1090FB6F894DEBF0FBECDBF789484B522
:10087000826084BD84B5816084BD85B5826085BD9C
:1008800085B5816085BD80916E00816080936E002A
:10089000109281008091810082608093810080911C
:1008A00081008160809381008091800081608093CD
:1008B00080008091B10084608093B1008091B0008D
:1008C00081608093B00080917A00846080937A0088
:1008D00080917A00826080937A0080917A008160B2
:1008E00080937A0080917A00806880937A001092D9
:1008F000C10085E00E94A60086E00E94A60083E079
:100900000E94A600E0913801F091390182E08083D5
:10091000E0913401F09135011082E0913601F091BF
:1009200037018FEC808310924001E0913C01F091FF
:100930003D0186E08083E0913A01F0913B018081A6
:1009400080618083E0913A01F0913B018081886071
:100950008083E0913A01F0913B018081806880833F
:10096000E0913A01F0913B0180818F7D808368ECBA
:1009700070E085EC91E00E94AF02AA24AA94B12C09
:1009800080911E01882309F49AC2C753DF4F198250
:100990001882C95CD040C553DF4F19821882CB5CE6
:1009A000D040C353DF4F19821882CD5CD040609194
:1009B000C5017091C6016115710549F04091C901E9
:1009C0005091CA01CE0187539F4F0E94D602C35354
:1009D000DF4F88819981CD5CD0400097C9F08C01B0
:1009E000015011098017910708F48C01C753DF4F9C
:1009F00068817981C95CD040A801CE0101960E942E
:100A0000AF0AE1E0F0E0EC0FFD1FE00FF11F1082F4
:100A100068E171E0CE0101960E94E00A8C010E941B
:100A2000C20A6C01990FEE08FF08F7FE14C0E091AE
:100A30002801F09129010190F081E02D6DE288E21A
:100A400091E0099566277727CB016C197D098E09FE
:100A50009F094AE003C04AE0C701B6010E945C0258
:100A600042E050E06AE171E088E291E00E94C50056
:100A7000C8010E94C20A8130910509F0DCC168E119
:100A800071E080E090E00E94E00A6C0168E171E0B2
:100A900080E090E00E94E00A7C0168E171E080E083
:100AA00090E00E94E00A8C01C6010E94BE0A3B0150
:100AB0004C01C7010E94BE0A1B012C01C8010E9403
:100AC000BE0A6B017C0120E030E843EB53E4C40133
:100AD000B3010E949E0818163CF4612C20E8722E87
:100AE00023EB822E23E4922E20E030E048EC52E407
:100AF000C201B1010E949E08181634F4212C312C39
:100B000098EC492E92E4592E20E030E048EC52E473
:100B1000C701B6010E949E08181634F4C12CD12CCE
:100B200088ECE82E82E4F82E20E030E044E752E43E
:100B3000C401B3010E94920C87FF13C020E030E88B
:100B400044ED53E4C401B3010E94F80C20E030E00E
:100B500048EC52E40E94FD070E946F08762E10E0D8
:100B6000C1C020E030E042EF52E4C401B3010E9472
:100B7000920C87FF23C020E030E040E752E4C4013C
:100B8000B3010E94900720E030E844ED53E40E9456
:100B9000F80C20E030E048EC52E40E94FD079B0195
:100BA000AC0160E070E08FE793E40E9490070E9440
:100BB0006F08862E10E077247A9496C020E030E00B
:100BC00045E353E4C401B3010E94920C87FF1AC0AD
:100BD00020E030E040EF52E4C401B3010E949007EE
:100BE00020E030E844ED53E40E94F80C20E030E0CF
:100BF00048EC52E40E94FD070E946F08162F7724EC
:100C00007A942AC020E030E041E753E4C401B30104
:100C10000E94920C87FF22C020E030E044E353E4BE
:100C2000C401B3010E94900720E030E844ED53E492
:100C30000E94F80C20E030E048EC52E40E94FD07EE
:100C40009B01AC0160E070E08FE793E40E949007A5
:100C50000E946F08762E1FEF812C46C020E030E8FE
:100C600046E953E4C401B3010E94920C87FF1AC005
:100C700020E030E040E753E4C401B3010E94900754
:100C800020E030E844ED53E40E94F80C20E030E02E
:100C900048EC52E40E94FD070E946F08862E1FEF69
:100CA000712C22C020E030E046E953E4C401B301D6
:100CB0000E94900720E030E844ED53E40E94F80CD5
:100CC00020E030E048EC52E40E94FD079B01AC01BB
:100CD00060E070E08FE793E40E9490070E946F0845
:100CE000162F712C88248A94A201910160E070E093
:100CF00088EC92E40E9490071B012C01B501681951
:100D00007109072E000C880B990B0E94990CA20107
:100D100091010E94F80C20E030E048EC52E40E947F
:100D2000FD070E946F08662EB50167197109072E2D
:100D3000000C880B990B0E94990CA20191010E9452
:100D4000F80C20E030E048EC52E40E94FD070E94DD
:100D50006F08962EB501611B7109072E000C880BD8
:100D6000990B0E94990CA20191010E94F80C20E0BD
:100D700030E048EC52E40E94FD070E946F08062F05
:100D8000662D680D70E080E090E00E94990CA7014C
:100D900096010E94F80C20E030E048EC52E40E94FA
:100DA000FD07C153DF4F688379838A839B83CF5CC0
:100DB000D040692D670D70E080E090E00E94990CB2
:100DC000A70196010E94F80C20E030E048EC52E4C4
:100DD0000E94FD072B013C01602F610F70E080E055
:100DE00090E00E94990CA70196010E94F80C20E067
:100DF00030E048EC52E40E94FD076B017C01C153D6
:100E0000DF4F688179818A819B81CF5CD0400E94CD
:100E10006F0870E085E00E94FE01C301B2010E94EC
:100E20006F0870E086E00E94FE01C701B6010E94D3
:100E30006F0870E02FC0029781F568E171E080E0F3
:100E400090E00E94E00A6C0168E171E080E090E0CF
:100E50000E94E00A7C0168E171E080E090E00E947D
:100E6000E00A8C01C6010E94C20A6C01C7010E94FF
:100E7000C20A7C01C8010E94C20A8C01B601772710
:100E800085E00E94FE01B701772786E00E94FE01FF
:100E9000B801772783E00E94FE01C753DF4F8881A6
:100EA0009981C95CD0400E94380940E050E06CE173
:100EB00071E085EC91E00E94D60210921E010E9422
:100EC00048035ECD8091C5019091C6010C9438090C
:100ED000A1E21A2EAA1BBB1BFD010DC0AA1FBB1F3E
:100EE000EE1FFF1FA217B307E407F50720F0A21BB0
:100EF000B30BE40BF50B661F771F881F991F1A941D
:100F000069F760957095809590959B01AC01BD0146
:100F1000CF010895EE0FFF1F0590F491E02D099485
:100F20005058BB27AA270E94A8070C947F0D0E9447
:100F3000710D38F00E94780D20F039F49F3F19F4BC
:100F400026F40C946E0D0EF4E095E7FB0C94680DFE
:100F5000E92F0E94900D58F3BA17620773078407B0
:100F6000950720F079F4A6F50C94B20D0EF4E095F7
:100F70000B2EBA2FA02D0B01B90190010C01CA0153
:100F8000A0011124FF27591B99F0593F50F4503EFE
:100F900068F11A16F040A22F232F342F4427585FF0
:100FA000F3CF469537952795A795F0405395C9F708
:100FB0007EF41F16BA0B620B730B840BBAF09150C0
:100FC000A1F0FF0FBB1F661F771F881FC2F70EC05F
:100FD000BA0F621F731F841F48F487957795679532
:100FE000B795F7959E3F08F0B0CF9395880F08F01E
:100FF0009927EE0F9795879508950E9411080C94F4
:101000007F0D0E94780D58F00E94710D40F029F478
:101010005F3F29F00C94680D51110C94B30D0C94A2
:101020006E0D0E94900D68F39923B1F3552391F34F
:10103000951B550BBB27AA2762177307840738F047
:101040009F5F5F4F220F331F441FAA1FA9F335D0A4
:101050000E2E3AF0E0E832D091505040E695001C58
:10106000CAF72BD0FE2F29D0660F771F881FBB1F12
:10107000261737074807AB07B0E809F0BB0B802DF0
:10108000BF01FF2793585F4F3AF09E3F510578F01C
:101090000C94680D0C94B30D5F3FE4F3983ED4F3C9
:1010A000869577956795B795F7959F5FC9F7880FF0
:1010B000911D9695879597F90895E1E0660F771F42
:1010C000881FBB1F621773078407BA0720F0621BD3
:1010D000730B840BBA0BEE1F88F7E09508950E94FE
:1010E000980D88F09F5798F0B92F9927B751B0F015
:1010F000E1F0660F771F881F991F1AF0BA95C9F79C
:1011000014C0B13091F00E94B20DB1E008950C947A
:10111000B20D672F782F8827B85F39F0B93FCCF32D
:10112000869577956795B395D9F73EF49095809518
:10113000709561957F4F8F4F9F4F08950E94D40CFB
:1011400008F48FEF0895CF93DF938230910510F468
:1011500082E090E0E091CF01F091D00120E030E01A
:10116000C0E0D0E0309711F1408151814817590714
:10117000C0F04817590761F482819381209719F0D4
:101180009B838A832BC09093D0018093CF0126C08C
:101190002115310519F04217530718F49A01BE01C1
:1011A000DF01EF010280F381E02DDCCF2115310555
:1011B00009F1281B390B2430310590F412968D91DA
:1011C0009C9113976115710521F0FB019383828334
:1011D00004C09093D0018093CF01FD01329644C0AA
:1011E000FD01E20FF31F81939193225031092D935A
:1011F0003C933AC02091CD013091CE01232B41F494
:1012000020910201309103013093CE012093CD0152
:1012100020910001309101012115310541F42DB7D4
:101220003EB74091040150910501241B350BE0911C
:10123000CD01F091CE01E217F307A0F42E1B3F0B76
:101240002817390778F0AC014E5F5F4F2417350738
:1012500048F04E0F5F1F5093CE014093CD01819314
:10126000919302C0E0E0F0E0CF01DF91CF910895CB
:101270000F931F93CF93DF93009709F48CC0FC0169
:101280003297138212820091CF011091D001011583
:10129000110581F420813181820F931F2091CD01AE
:1012A0003091CE012817390779F5F093CE01E093FC
:1012B000CD0171C0D80140E050E0AE17BF0750F437
:1012C00012962D913C911397AD012115310509F12D
:1012D000D901F3CF9D01DA013383228360817181CB
:1012E000860F971F8217930769F4EC0128813981D3
:1012F000260F371F2E5F3F4F318320838A819B81CA
:1013000093838283452B29F4F093D001E093CF019E
:1013100042C01396FC93EE931297ED0149915991B7
:101320009E01240F351FE217F30771F4808191812C
:10133000840F951F029611969C938E9382819381C0
:1013400013969C938E931297E0E0F0E0D8011296EA
:101350008D919C911397009719F0F8018C01F6CFAD
:101360008D919C9198012E5F3F4F820F931F20918A
:10137000CD013091CE012817390769F4309729F44F
:101380001092D0011092CF0102C0138212821093EA
:10139000CE010093CD01DF91CF911F910F91089560
:1013A000A0E0B0E0E6EDF9E00C94C80DEC01009788
:1013B00021F4CB010E94A308B8C0FC01E60FF71F7F
:1013C0009C0122503109E217F30708F4ACC0D9019F
:1013D0000D911C91119706171707B0F005301105F4
:1013E00008F49FC0C80104978617970708F499C0AE
:1013F00002501109061B170B019311936D937C93F7
:10140000CF010E9438098DC05B01A01AB10A4C01BE
:10141000800E911EA091CF01B091D00140E050E02C
:10142000E12CF12C109709F44AC0A815B905D1F5A3
:101430006D907C901197630182E0C80ED11CCA1494
:10144000DB0480F1A3014A195B096A0182E0C80E3E
:10145000D11C1296BC9012971396AC91B5E0CB16A6
:10146000D10440F0B282A38351834083D9016D93AC
:101470007C930AC00E5F1F4FC301800F911FF901BB
:1014800091838083EB2DFA2FE114F10431F0D70121
:101490001396FC93EE93129744C0F093D001E0931F
:1014A000CF013FC08D919C9111974817590708F4BF
:1014B000AC017D0112960D90BC91A02DB3CF80910F
:1014C000CD019091CE0188159905E1F44617570793
:1014D000C8F48091000190910101009741F48DB70B
:1014E0009EB74091040150910501841B950BE817AC
:1014F000F907C8F4F093CE01E093CD01F9017183AF
:1015000060830FC0CB010E94A3087C01009759F0B3
:10151000A801BE010E949F0ACE010E943809C7019E
:1015200004C0CE0102C080E090E0CDB7DEB7EEE0AF
:101530000C94E40D81E090E0F8940C940A0EFB0109
:10154000DC0102C001900D9241505040D8F708953F
:10155000FB01DC0101900D920020E1F70895FB01F1
:10156000DC014150504048F001900D920020C9F735
:1015700001C01D9241505040E0F70895662777273B
:101580000C94140BFC0188279927E89421912032B0
:10159000E9F3293010F02E30C8F32B3241F02D3210
:1015A00039F4689404C00E940C0B820F911D2191A4
:1015B00020532A30C0F31EF4909581959F4F0895D3
:1015C0004BEC51E00E94E50A0895FA01A191B08127
:1015D000009719F41097E1F0CD01DC01CD010D90D9
:1015E000002011F4C00113C0FB012191222319F046
:1015F0002015D9F7F3CFFB012191201519F41E9284
:10160000119606C02223C1F70D900020A1F7D0014A
:10161000FA01A193B08308957AE0979F902D879F58
:10162000802D910D11240895A0E0B0E0EAE1FBE0E7
:101630000C94C80DEC017B016115710519F0DB01FB
:101640008D939C938E010F5F1F4F7880872D90E0C4
:101650000E94710C892B11F0E801F4CFBDE27B12DE
:1016600005C00F5F1F4F7980C1E008C0EBE27E121A
:1016700004C08E010E5F1F4F7980C0E06801F1E069
:10168000CF1AD10843E050E060EC70E0C6010E9440
:101690007A0C892BF1F4680122E0C20ED11C45E0DE
:1016A00050E06BEB70E0C6010E947A0C892B21F4AC
:1016B000680187E0C80ED11CE114F10419F0D701CC
:1016C000CD92DC92C111FFC060E070E080E89FE73E
:1016D00003C143E050E068EB70E0C6010E947A0C61
:1016E000892B51F4E114F10409F4F2C00E5F1F4F8D
:1016F000F70111830083ECC0680160E070E0CB016A
:1017000000E010E0F601D0EDD70DDA3058F52C2FBF
:101710002260622E2C2F2870C2FF05C0211128C024
:101720000F5F1F4F25C0222311F001501109A5E0C2
:10173000B0E09B01AC010E94B90D4B015C01880C2B
:10174000991CAA1CBB1CC501B4016D0F711D811D24
:10175000911D6839A9E97A078A07A9E19A0740F03B
:10176000C66005C0DE3F51F4C3FD44C0C8606C2EA6
:10177000BFEFCB1ADB0A7080C62DC4CF2D2F2F7D73
:101780002531C1F540814D3211F4C06106C04B32A4
:1017900021F0319621E030E006C03296D601119654
:1017A0004C9122E030E0A0EDA40FAA3018F0E21B2B
:1017B000F30B20C040E050E04038BCE05B075CF435
:1017C0009A01220F331F220F331F420F531F440F62
:1017D000551F4A0F511D3196DF0111972C91A0ED35
:1017E000A20FAA3048F3C4FF03C051954195510997
:1017F000040F151FC1FF07C0E114F10421F0319758
:10180000D701ED93FC930E94970CC370C33019F07D
:101810006B017C0106C06B017C01F7FAF094F7F8CC
:10182000F09420E030E0A901C701B6010E94920CBB
:10183000882309F445C017FF06C0119501951109C9
:10184000C7EDD0E002C0CFEED0E05E01B8E1AB1A48
:10185000B1084601BE2DAF2D90E2E92EF12C0E15F8
:101860001F0584F0FE012591359145915491B401F5
:101870008B2F9A2F0E94F80C4B01B82FA92F0E190D
:101880001F09EDCF2497F594E794CA15DB0539F7C6
:101890006401EB2EFA2E8E2D880F8F2D881F8F3F1F
:1018A00049F020E030E0A901C701B6010E94920C86
:1018B000811106C082E290E09093D2018093D10121
:1018C000C701B60109C060E070E080E89FEF04C086
:1018D00060E070E080EC9FE7CDB7DEB7EEE00C94FF
:1018E000E40D91110C94650D803219F089508550EA
:1018F000C8F70895FB01DC014150504088F08D91FC
:1019000081341CF08B350CF4805E659161341CF0E1
:101910006B350CF4605E861B611171F3990B0895B1
:10192000881BFCCF0E94D40C08F481E00895E89451
:1019300009C097FB3EF490958095709561957F4F17
:101940008F4F9F4F9923A9F0F92F96E9BB279395C5
:10195000F695879577956795B795F111F8CFFAF4D5
:10196000BB0F11F460FF1BC06F5F7F4F8F4F9F4F06
:1019700016C0882311F096E911C0772321F09EE864
:10198000872F762F05C0662371F096E8862F70E0CA
:1019900060E02AF09A95660F771F881FDAF7880FA4
:1019A0009695879597F90895990F0008550FAA0BFA
:1019B000E0E8FEEF16161706E807F907C0F0121662
:1019C0001306E407F50798F0621B730B840B950B65
:1019D00039F40A2661F0232B242B252B21F40895BA
:1019E0000A2609F4A140A6958FEF811D811D089557
:1019F0000E940B0D0C947F0D0E94710D38F00E9417
:101A0000780D20F0952311F00C94680D0C946E0D58
:101A100011240C94B30D0E94900D70F3959FC1F3A7
:101A2000950F50E0551F629FF001729FBB27F00D8C
:101A3000B11D639FAA27F00DB11DAA1F649F6627E1
:101A4000B00DA11D661F829F2227B00DA11D621F30
:101A5000739FB00DA11D621F839FA00D611D221FEA
:101A6000749F3327A00D611D231F849F600D211DCE
:101A7000822F762F6A2F11249F5750409AF0F1F051
:101A800088234AF0EE0FFF1FBB1F661F771F881FBA
:101A900091505040A9F79E3F510580F00C94680D7D
:101AA0000C94B30D5F3FE4F3983ED4F3869577959D
:101AB0006795B795F795E7959F5FC1F7FE2B880F60
:101AC000911D9695879597F90895992788270895E8
:101AD00097F99F6780E870E060E008959FEF80ECE1
:101AE000089500240A941616170618060906089584
:101AF00000240A9412161306140605060895092EEA
:101B00000394000C11F4882352F0BB0F40F4BF2B58
:101B100011F460FF04C06F5F7F4F8F4F9F4F089598
:101B200057FD9058440F551F59F05F3F71F047958E
:101B3000880F97FB991F61F09F3F79F08795089573
:101B4000121613061406551FF2CF4695F1DF08C092
:101B5000161617061806991FF1CF869571056105AF
:101B600008940895E894BB2766277727CB0197F957
:101B700008950E94FB0DA59F900DB49F900DA49F0A
:101B8000800D911D112408952F923F924F925F92E4
:101B90006F927F928F929F92AF92BF92CF92DF927D
:101BA000EF92FF920F931F93CF93DF93CDB7DEB7E2
:101BB000CA1BDB0B0FB6F894DEBF0FBECDBF099476
:101BC0002A88398848885F846E847D848C849B84CD
:101BD000AA84B984C884DF80EE80FD800C811B81DB
:101BE000AA81B981CE0FD11D0FB6F894DEBF0FBE0A
:101BF000CDBFED010895A29FB001B39FC001A39F87
:101C0000700D811D1124911DB29F700D811D112435
:101C1000911D089510E0CBE7D0E004C0FE010E94C2
:0E1C20008A072196CC37D107C9F7F894FFCF79
:101C2E000000D3018000000000004901C500120130
:0E1C3E00F0000401900120005E000D0A00007D
:00000001FF
